:020000040800F2
:10800000D85E012045830008D9CD0008858300088B
:1080100045CD00080DC3000861D100080000000034
:10802000000000000000000000000000C1CF0008B8
:10803000EDC600080000000051CF000839D000084C
:108040005F8300085F8300085F8300085F83000888
:108050005F8300085F8300085F8300085F83000878
:108060005F8300085F8300085F830008E9C600089B
:108070005F8300085F8300085F8300085F83000858
:108080005F8300085F8300085F8300085F83000848
:108090005F8300085F8300085F8300085F83000838
:1080A0005F8300085F8300085F8300085F83000828
:1080B0005F8300085F830008F5D00008D9CC000872
:1080C000C9CC0008F9CC0008E9CC00085F8300089F
:1080D0005F8300083DD100084DD100085F83000890
:1080E0005F8300085F8300085F8300085F830008E8
:1080F0005F8300085F8300085F8300085F830008D8
:108100005F8300085F8300085F8300085F830008C7
:108110005F83000829D100085F8300085F8300089F
:108120005F8300085F8300085F8300085F830008A7
:108130005F83000819CD000809CD00085F8300089F
:10814000000000000000000000000000000000002F
:108150005F8300085F8300085F8300085F83000877
:108160005F8300085F8300085F8300085F83000867
:108170005F8300085F8300085F8300085F83000857
:108180005F83000800F002F800F0CCF814A696E82F
:10819000000CB244B344DA4501D100F0C3F8BAE8A8
:1081A0000F000FA696E83000A5EB040504EB0607C8
:1081B000AAEB0704A7F101074FEA15154FEA34149B
:1081C000A4F10104AC4201D300F0ACF813F0010FAC
:1081D00018BFFB1A43F0010300F001F8DBE7184772
:1081E000D8CD0100F8CD01000A444FF0000C10F882
:1081F000013B13F0070408BF10F8014B1D1108BF25
:1082000010F8015B641E05D010F8016B641E01F8C4
:10821000016BF9D113F0080F1EBF10F8014BAD1C14
:108220000C1B09D16D1E58BF01F801CBFAD505E032
:1082300014F8016B01F8016B6D1EF9D59142D6D38C
:10824000704700007047000000230024002500262E
:10825000103A28BF78C1FBD8520728BF30C148BFA9
:108260000B6070476E2900F0C986702901F01380F9
:1082700066291CF03F8265291CF03C8267291CF0AE
:10828000398261291CF0388203681B0A28BF41F03B
:108290008001692900F07686642900F073867529CB
:1082A00000F070866F2900F0A187782900F0DF8741
:1082B000E92900F03B87E42900F03887F52900F030
:1082C0003587EF2900F09E87F82900F0DE870368E4
:1082D000DB0928BF41F08001632902F05181732935
:1082E00002F05681E32902F06181F32902F06681F0
:1082F000002070471FB51CF0E8F99DE8030000F06E
:1083000075FD00F053FD0400002000211BF016FB5A
:10831000401C6060002000211BF026FBE0601FBDB8
:1083200010B510BD02F0ECFD1146FFF7E3FF0DF0B4
:10833000C9F902F0CFFE03B4FFF7F2FF03BC02F06D
:10834000FFFE00000948804709480047FEE7FEE7B6
:10835000FEE7FEE7FEE7FEE7FEE7FEE7FEE7FEE7F5
:1083600004480549054A064B704700004DD00008F7
:1083700085810008D8580120D85E0120D85A0120F4
:10838000D85A01207046694607F03CFCFFF7FEFF13
:1083900010B500F00BFD001D10BD00BFA1B5010020
:1083A00070B50446051F00F0FDFC0068002C14BFEA
:1083B000446870BD002C18BFAC423CBF20466468C6
:1083C000F8D301680A18AA4218BF456003D12A6889
:1083D00005461144016028684119A1421CBF6C6028
:1083E00070BD6168696021680844286070BD70B51F
:1083F0000D460646041F00F0D5FC0268BDB1DEB193
:1084000005F10B0020F00701A9423CBF002070BD20
:1084100023688B4238BF506813D35A1A082A36D3C0
:10842000601840F8042B2160FFF7BAFF2FE03046B8
:10843000FFF7B6FF002070BD2846BDE8704000F091
:1084400004BD002818BFA0423CBF02464068F8D3D4
:1084500003EB040C84451CD1D0F800C0634499425E
:1084600017D8A3EB010CBCF1080F0DD3D0F804C052
:108470006318C3F804C0D4F800C000686044401A10
:1084800018602160536002E0236040685060201D46
:1084900070BD284600F0D9FC050008D031462068A0
:1084A000021F284600F085FB201DFFF779FF2846B4
:1084B00070BD00000FB41CB5084B06AA7B4469468A
:1084C0000090059800F0B3FD04460020694600F0D6
:1084D000C1FD20461CBC5DF814FB0000950B00009C
:1084E0001CB50C46064B7B4469460090204600F0C4
:1084F0009EFD04460020694600F0ACFD20461CBDF0
:108500006B0B00000FB41CB50C0007AA009007D03D
:108510004142A14202D32044401E01E04FF0FF300F
:10852000074B7B4469460190069800F080FD0021CE
:10853000002C01D0009A11701CBC5DF814FB0000E7
:10854000390B00000FB400B58DB010A9099000914F
:108550000B904FF0FF300A9000200C9006487844B2
:108560000690064878446A4607900F9909A801F0DA
:1085700029F90DB05DF814FB831200009B12000076
:1085800070B5064600F016FC0468054630460A221F
:10859000002100F002F82C6070BD2DE9F0479146F3
:1085A0000F4680460446002614F8015B2DB1FFF704
:1085B000EFFE0068405DC007F6D12B2D02D02D2DB7
:1085C00018D0641E4A463946204601F02BF927B1DF
:1085D0003968A14201D1C7F800804FF0020471054B
:1085E0000BD54042002803DD00F0E4FB0460A00747
:1085F000BDE8F08746F48066E4E70028F8DA00F08A
:10860000D9FB04606FF00040F2E72DE9F05F93467C
:108610000F4680460446002600F0CCFBD0F80090C0
:10862000824614F8015B2DB1FFF7B2FE0068405D91
:10863000C007F6D12B2D02D02D2D1AD0641E00219B
:10864000CAF800105A463946204601F0EBF80146B8
:1086500027B13868A04201D1C7F80080DAF80000DD
:10866000022809D0CAF80090700505D54842BDE837
:10867000F09F46F48066E2E70846F8E72DE9F04F00
:108680009B4616464FF00109C1B020910090A9F118
:10869000010920A85DF8295050F82900C5E04FEAEB
:1086A0006A0070432C185FEACA7100D1801B5A46D9
:1086B000214627182846904700280EDD304646EA16
:1086C0000501890765D022782978401E05F8012B1D
:1086D00004F8011BF7D1AD1BA41B5A4639462046AE
:1086E0009047002823DD5A463946284690470028FF
:1086F0000EDD304646EA0501890751D03A782978DF
:10870000401E05F8012B07F8011BF7D1AD1BBF1B5D
:10871000304646EA0401890749D03A782178401E5C
:1087200004F8012B07F8011BF7D1A41BBF1B31462E
:1087300046EA0402B81B920740D003782278491E0B
:1087400004F8013B00F8012BF7D12C46871BB846F3
:1087500034445A464146204690470028F8DB5A46A2
:108760004146BF1B384690470028F8DC304646EAB1
:108770000401A7424FEA81712ED931B33A782178AA
:10878000401E04F8012B07F8011BF7D1A41BBF1BE7
:10879000DEE722682968001F04C502C4F9D19AE700
:1087A0003A682968001F04C502C7F9D1AEE73A68E4
:1087B0002168001F04C402C7F9D1B6E70368226824
:1087C000091F08C404C0F9D1BFE73A682168001F37
:1087D00004C402C7F9D1D9E7E1B198F800202178A3
:1087E000401E04F8012B08F8011BF6D1A21B501BF8
:1087F000B0FBF6F0401EAAEB0001491E884216DDD0
:108800000A2910DD20AB4DF8295043F8290009F161
:10881000010918E0D8F800202168001F04C448F8B6
:10882000041BF7D1E2E70A2810DD824637E70A2861
:1088300007DD4DF8292020AA42F8291009F1010985
:10884000F3E70A2902DD15468A4628E7B9F1000F49
:108850007FF41DAF41B0BDE8F08F2DE9F047994698
:108860000F460646140039D0002F37D00A2F01D901
:10887000FFF704FF7F1E354607FB04582CE02F4608
:10888000254400E03F1BB74205D34A4629463846F7
:1088900090470028F6DC44EA05003B1980070CD01D
:1088A000002117E029180A1B0F6802E01168115116
:1088B000121B9A42FAD2001D1751A0420CD2F1E7C6
:1088C0006818027801E007780755001B9842FAD231
:1088D000491C0255A142F3D34545D0D3BDE8F087EA
:1088E000401ECAB210F8011F8A4202D00029F9D1F5
:1088F0000020704730B505460B462A4613F8014B59
:1089000012F8010B08B1A042F8D01CB1002802D027
:108910006D1CF1E7284630BD40EA010310B59B0706
:108920000FD1042A0DD310C808C9121F9C42F8D0D9
:1089300020BA19BA884201D9012010BD4FF0FF308A
:1089400010BD1AB1D30703D0521C07E0002010BDA0
:1089500010F8013B11F8014B1B1B07D110F8013B2C
:1089600011F8014B1B1B01D1921EF1D1184610BD0D
:1089700040EA0103024630B59B0710D14FF00134A5
:1089800000E008C208C91D1B9D4315EAC41FF8D0AA
:1089900013F0FF0102F8011B0DD01B0AF8E711F8D4
:1089A000013B002B02F8013B05D011F8013B002BE5
:1089B00002F8013BF3D130BD10B5431C02E010F8C2
:1089C000011B71B18107FAD14FF0013202C88C1A34
:1089D0008C4314EAC211F9D0C01A0A0603D0C01E93
:1089E00010BDC01A10BD0A0401D0801E10BD0902BE
:1089F000FCD0401E10BD40EA010370B59B072ED18C
:108A00004FF00136042A2AD308C810C99D1B9D4384
:108A1000121F15EAC61517D0D8B2E1B2401A50EAB3
:108A2000056110D198B2A1B2401A50EA05410AD1AD
:108A300023F07F4024F07F41401A50EA052102D103
:108A4000180EA0EB146070BDA342DBD018BA21BA97
:108A5000884201D9012070BD4FF0FF3070BD0AB9C6
:108A6000002070BD10F8013B11F8014B63B1A34227
:108A70000AD1521E08D010F8013B11F8014B1BB16E
:108A8000A34201D1521EEDD1181B70BD421E12F837
:108A9000013F002BFBD111F8013B002B02F8013BF9
:108AA000F9D17047032A40F2308010F0030C00F037
:108AB000158011F8013BBCF1020F624498BF11F818
:108AC00001CB00F8013B38BF11F8013BA2F10402D1
:108AD00098BF00F801CB38BF00F8013B11F0030349
:108AE00000F06780083AC0F0088051F8043B083A6B
:108AF00051F804CBA0E80810F5E7121D5CBF51F84F
:108B0000043B40F8043BAFF30080D20724BF11F8C8
:108B1000013B11F801CB48BF11F8012B24BF00F82D
:108B2000013B00F801CB48BF00F8012B7047431A06
:108B300028BF9A427FF6B6AF10441144032A40F290
:108B4000268010F0030F1EBF11F8013D521E00F8E1
:108B5000013D10F0030F7FF4F6AF11F0030301F0B5
:108B60008280083AC0F00B8051F8043D083A51F871
:108B700004CD40F8043D40F804CDFFF7F3BF121DCB
:108B80005CBF51F8043D40F8043DAFF30080D207CC
:108B900024BF11F8013D11F801CD48BF11F8012C97
:108BA00024BF00F8013D00F801CD48BF00F8012CBA
:108BB000704710B5203AC0F00B80B1E81850A0E81B
:108BC0001850B1E81850A0E81850203ABFF4F5AF9B
:108BD0005FEA027C24BFB1E81850A0E8185044BFF7
:108BE00018C918C0BDE810405FEA827C24BF51F864
:108BF000043B40F8043B08BF7047D20728BF31F858
:108C0000023B48BF11F8012B28BF20F8023B48BFA8
:108C100000F8012B704702F0FF0343EA032242EA07
:108C2000024200F00AB802F0FF0343EA032242EADC
:108C3000024200F024B84FF000020429C0F0128074
:108C400010F0030C00F01B80CCF1040CBCF1020FFF
:108C500018BF00F8012BA8BF20F8022BA1EB0C01D4
:108C600000F00DB85FEAC17C24BF00F8012B00F8CA
:108C7000012B48BF00F8012B70474FF0000200B5F0
:108C8000134694469646203922BFA0E80C50A0E82F
:108C90000C50B1F12001BFF4F7AF090728BFA0E8DD
:108CA0000C5048BF0CC05DF804EB890028BF40F8A9
:108CB000042B08BF704748BF20F8022B11F0804FEB
:108CC00018BF00F8012B704710B5044610F0030FD1
:108CD00008BF11F0030F40F015804FF0013E121F46
:108CE000C0F20E8051F8043BA3EB0E0C2CEA030CEF
:108CF0001CEACE1C08BF40F8043BF0D0A1F10401EF
:108D000002F10402521E08DB11F8013B00F8013B9E
:108D1000002BF7D11146FFF78EFF204610BD000053
:108D200030B44FF0013C50F8042B51F8043BCCFA1E
:108D300052F4D51A20D1FCB950F8042B51F8043B59
:108D4000CCFA52F4D51A17D1B4B950F8042B51F813
:108D5000043BCCFA52F4D51A0ED16CB950F8042B5E
:108D600051F8043BCCFA52F4D51A05D1002CDAD0D4
:108D700030BC4FF00000704729BAB1FA81F111F010
:108D80001801D1F120008440F2D1CA40CB4012F04A
:108D9000FF0213F0FF0330BCD01A704770477047D2
:108DA0007047000000487047B80600200048704730
:108DB000D006002000487047B0060020704770477A
:108DC0007047704738B504460A4600206946AFF33D
:108DD0000080002808BF38BD02460099204600F0F8
:108DE00077FF012038BD012002F083B8F8B5AFF35A
:108DF0000080054600200C460C2000BF0646A8193E
:108E0000A0420DD9324669460020AFF3008007002A
:108E100008BF02F06EF80098A04218BF0546C419BA
:108E2000FFF7C0FF05600746F01D20F00700461958
:108E3000284600F047FFB44208BFF8BDA21B3146E8
:108E40003868BDE8F84000F043BF70B50646FFF74C
:108E5000A9FF056806F10B0020F00704B4429CBF8F
:108E6000002070BD2B466A68BAB11068A04210D3CA
:108E700004F1080188423CBF5068586007D351682C
:108E8000101941601168091B016058601460101DC1
:108E900070BD13465268002AE7D121462846FFF7E5
:108EA00091FF0028DED170BD10B5FFF783FF006889
:108EB00010BD10B50446FFF77DFF046010BD70B50E
:108EC000044685690068C10601D5302600E02026E9
:108ED000C00707D070BDD4E9012130469047206A11
:108EE000401C20626D1EF6D570BD70B504468569C4
:108EF0000078C00707D170BDD4E901212020904738
:108F0000206A401C20626D1EF6D570BD09684A05B6
:108F100001D540B27047C905FCD500B27047096859
:108F20004A0501D5C0B27047C905FCD580B270476B
:108F300070B50C460546012A05D02878800600D574
:108F4000EA69002302E0012305E05B1C934202D2A0
:108F5000E05C0028F9D1A869E618C01AA861286A5F
:108F6000184428622846FFF7AAFF04E0D5E901214A
:108F700014F8010B9047B442F8D32846FFF7B5FF29
:108F800070BD00002DE9F0410646002410687529E7
:108F9000314616A510D0FFF7B9FF002802DA40428B
:108FA00013A507E031688A0701D512A502E0490739
:108FB00004D511A5012401E0FFF7B1FF00210A2229
:108FC00006F1240709E0B0FBF2FCB0FBF2F302FB70
:108FD0001C00303078541846491C0028F3D1234631
:108FE0002A463046BDE8F04100F0DABE000000003D
:108FF0002D0000002B000000200000001168026816
:10900000006A530501D508700AE0D30501D5088030
:1090100006E0130603D5C217C1E9000200E00860AC
:109020000120704701694A1C02610878704700B549
:109030008FB0CDE901310021059105497944CDE991
:1090400003101146684600F031F90FB000BD000072
:10905000E5FFFFFF0A6802F8010B0A607047D1E9DB
:1090600000239A4202D2531C0B601070704700001C
:109070002DE9FF5F15468A460446DFF8AC80F844C8
:109080000027D8E900103E46CDE9001010E03AF87C
:1090900016106A4602A801F008FF411C07D021788B
:1090A000890603D5E269391891420DD80744761C28
:1090B0002078800602D5E069B84205DDAE42E6DBE5
:1090C0003AF816000028E2D1A069C01BA061204632
:1090D000FFF7F5FED8E90010CDE90010002017E0F9
:1090E0003AF818106A4602A801F0DFFEB0F1FF3F1F
:1090F00081460BD000250DF1080B05E0D4E90121D4
:109100001BF8050090476D1C4D45F7D308F1010091
:10911000B0428046E4DB206A384420622046FFF7F4
:10912000E4FEBDE8FF9F000076B701002DE9F041A5
:109130008046D21D22F007020025D2E90002F5295F
:1091400015A614D0011E72F1000106DA0023D0EB3F
:10915000030063EB020211A608E0D8F800108B07A9
:1091600001D50FA602E0490701D50EA6012511463B
:10917000002408F1240704E000F0C4FD30323A5521
:10918000641C50EA0102F7D12B4632462146404684
:10919000BDE8F04100F004BE000000002D0000001A
:1091A0002B0000002000000030B4002100F1240456
:1091B00008E002F00705D208303542EA4372DB08C6
:1091C0006554491C52EA0305F3D10468002310A238
:1091D000250708D504F020040C4304D0C4690123FA
:1091E0000CA2641EC46130BC00F0DABD10B50446A8
:1091F00021461068FFF793FE02462046BDE8104066
:109200000023D1E7D21D22F00701D1E90023CBE7EB
:109210000000000030000000F0B40D460188090590
:1092200002D5214C7C4402E01F4C7C440E340021CA
:1092300000F1240608E002F00F071209E75D42EA98
:1092400003721B097754491C52EA0307F3D10278D1
:109250000023120704D5702D06D009B10223113462
:109260002246F0BC00F09CBD01231034F8E770B535
:1092700004460D4621461068FFF751FE0246294676
:109280002046BDE870400023C6E7D21D22F0070348
:10929000D3E90023C0E70368126843F020030360AA
:1092A0000823C3610023B7E7D8B501002DE9F05FBB
:1092B000894604464FF0000ADFF874B1FB44C0F859
:1092C00020A02046E1688847002874D0252806D0D1
:1092D000D4E901219047206A401C2062F1E7002672
:1092E0005F462046E16888472028054607DB312D88
:1092F00005D2781910F8200C08B10643F1E7B00741
:1093000001D526F00406C4F81CA00027C4F818A054
:109310002A2D09D028461AF0C2FA38B304EB870880
:10932000303DC8F8185019E059F8041B204604EBEA
:1093300087029161E1688847012F054618D1E069ED
:10934000002820DA26F020061DE0D8F8180000EBEF
:10935000800005EB40003038C8F818002046E1686E
:10936000884705461AF09BFA0028EED1012F0AD053
:109370002E2D08D12046E16888477F1C0546022F24
:1093800046F02006C4DBA069002803DA404246F01C
:109390000106A061F00701D026F010066C2D0BD05D
:1093A000682D09D04C2D39D06A2D35D0742D35D08B
:1093B0007A2D33D016E038E0E1682F462046884702
:1093C000B842054609D16C2F26D04FF48060E16881
:1093D000064320468847054604E06C2F1AD04FF418
:1093E000807006430DB3A5F14100192802D820353D
:1093F00046F400664A462946204626604E46FEF759
:1094000031FF80B101280BD0F61D26F0070000F1D6
:10941000080956E74020E4E78020D8E70020D6E797
:1094200006F104094DE7284652E7206ABDE8F09F9F
:1094300068B501002DE9FF4F1C4691464FF0FF35FE
:1094400081B000218A468846D4E90167A169029863
:109450006D1C8847216A834688470028F6D1BBF1F6
:10946000FF3F0CD0002F26F4C0661ADD700615D51C
:10947000BBF12B0F0AD0BBF12D0F0FD104E04FF041
:10948000FF3005B0BDE8F08F46F48066A169029810
:109490006D1C88477F1E8346002F02DDBBF1300F15
:1094A00003D0B9F1000F2AD025E0A1696D1C029804
:1094B0007F1E46F400768847002F834605DDBBF10A
:1094C000780F06D0BBF1580F03D0B9F1000F10D0C0
:1094D00011E0B9F1000F02D0B9F1100F0BD1A16961
:1094E0006D1C02987F1E26F4007688478346102064
:1094F00000E0082081464FEAE970009017E00A205A
:10950000F8E74346AAFB0928DDF800C07F1E03FBED
:10951000098046F4007605F101050AFB0C0112EB07
:109520000B0A029841EBEB78A16988478346002F2C
:1095300006DD4946584601F045F85FEA000BE0D5E4
:10954000E16902988847B00502D46FF0010098E7FE
:10955000F00718D1700610D55146700505D50023C7
:10956000D1EB030163EB080200E042462068031DD3
:1095700023600068C0E9001205E02068011D216039
:109580000068C0E900A828467BE72DE9FF5F1D467B
:109590004FF0FF3B91464FF000085F46D5E901468A
:1095A000A96901987F1C8847296A82468847002854
:1095B000F6D1BAF1FF3F0CD0002E24F4C06419DDBF
:1095C000600614D5BAF12B0F09D0BAF12D0F0ED1C8
:1095D00003E0584604B0BDE8F09F44F48064A969F4
:1095E00001987F1C8847761E8246002E02DDBAF164
:1095F000300F03D0B9F1000F26D032E0A969761EF2
:1096000001987F1C44F400748847002E824605DDD3
:10961000BAF1780F06D0BAF1580F03D0B9F1000FA4
:1096200010D01EE0B9F1000F02D0B9F1100F18D11F
:10963000A969761E01987F1C24F40074884782462D
:10964000102002E0082000E00A20814609E0A96914
:1096500008FB0908761E01987F1C44F400748847B3
:109660008246002E05DD4946504600F0ABFF00283B
:10967000EDDAE96901988847A00502D46FF001008E
:10968000A8E7E00725D1600613D5600502D5C8F12B
:10969000000000E0404629680A1D2A60096822058A
:1096A00001D5087015E0220701D5088011E0086097
:1096B0000FE02868011D29600068210502D580F8A7
:1096C000008006E0210702D5A0F8008001E0C0F884
:1096D000008038467EE72DE9FF5F4FF0000899468D
:1096E000144646469169D2E901A7DDF838B00198E1
:1096F0008847054659EA0B0005D009E0A1690198A1
:10970000761C88470546216A284688470028F5D1F7
:10971000681C03D05FEACA7005D015E04FF0FF3037
:1097200004B0BDE8F09F2068011D2160D0F80080E2
:109730000AE05FEACA7001D108F8015BA169761CF2
:1097400001987F1E88470546002F1ADD681C18D037
:10975000B9F1000F0DD0E81705EBD060421120F0F1
:109760001F0059F822102A1A012090400142E0D12E
:1097700007E0BBF1000FDCD12846216A88470028AA
:10978000D7D0E16901988847BBF1000F07D1002EBF
:1097900005DD5FEACA7002D1002188F80010A068D8
:1097A000B84203DDBBF1000F03D017B16FF0010029
:1097B000B6E73046B4E70000026811441378016050
:1097C00018467047D160054979445161044979448C
:1097D000116200211161114600F002BFEDFFFFFF91
:1097E000BD050000426842B1016811F8013B23B198
:1097F000521EC0E90012184670470121C160881E40
:10980000704742685AB1C368016843B983688B42A4
:1098100005D0491E521CC0E90012002070474FF0CD
:10982000FF3070472DE9F05F824615468B460027D2
:109830000AF10104B9460078302801D09DB113E047
:1098400014F8010B0127782803D0582801D045B11E
:109850000AE00DB1102D07D1002714F8010B1025D7
:1098600002E0082500E00A250026B0460EE005FBD0
:10987000080005FB06F101271FFA80F801EB1046EE
:10988000B6F5803F00D3B94614F8010B294600F025
:1098900099FE0028EBDABBF1000F05D00FB1641E72
:1098A00000E05446CBF80040B9F1000F06D0FFF7B6
:1098B00081FA02210160C81EBDE8F09F48EA064017
:1098C000FAE700000FB40B0010B54FF000048AB0A7
:1098D0000FA900910E99CC60234C7C44234A7A4412
:1098E000CDE9064200D004236FF00042CDE90132F9
:1098F0001F4A7A446B460892024600201AF05EFF27
:109900000AB010BC5DF814FBF0B507464FF0FF300D
:109910001E4615460C463B4685B06A460091CDE989
:10992000010131460020049004A8FFF7CBFF049901
:109930000346601825B109B1024600E022462A60BC
:1099400000290ED0002B02DD0099814209D03B4650
:109950006A463146001B0094CDE9010404A8FFF7D4
:10996000B1FF05B0F0BD000007FFFFFF21FFFFFFC3
:10997000990400002DE9FF4F4FF000089A46144665
:10998000C146464683B0D2E901B7CDF80080CDF894
:109990000480916904988847109905465AEA0100A5
:1099A00005D009E0A1690498761C88470546216A1C
:1099B000284688470028F5D1681C03D05FEACB70A1
:1099C00005D02AE04FF0FF3007B0BDE8F08F2068E7
:1099D000011D2160D0F800801FE002A86A46E9B2AC
:1099E00001F043FA411C07D0801C09D04FF0000958
:1099F0005FEACB7007D00AE0E169049888473EE04F
:109A00004FF0010904E0BDF8081028F8021B7F1E82
:109A1000A1690498761C88470546002F1ADD681C4A
:109A200018D0BAF1000F0DD0E81705EBD060421145
:109A300020F01F005AF822102A1A012090400142FB
:109A4000CBD107E010980028C7D12846216A884763
:109A50000028C2D0E16904988847B9F1000F0ED1FF
:109A6000109830B9002E04DD5FEACB7001D1A8F860
:109A70000000A068B84202DD109818B117B16FF06D
:109A80000100A1E730469FE72DE9FF4F4FF00008A6
:109A90009B461446454683B0D2E90196CDF8008036
:109AA000CDF804809169DDF848A0049888470746FE
:109AB0005BEA0A0005D009E0A16904986D1C88479B
:109AC0000746216A384688470028F5D1781C03D01C
:109AD0005FEAC97005D01BE04FF0FF3007B0BDE86A
:109AE000F08F2068011D2160D0F8008010E05FEA4F
:109AF000C97007D16A464046B9B201F0D6F9411C97
:109B000031D08044A1696D1C0498761E88470746B1
:109B1000002E14DD781C12D0BBF1000007D03B46AC
:109B2000DDE9101201F092F90028E0D107E0BAF166
:109B3000000FDCD13846216A88470028D7D0E16978
:109B400004988847BAF1000F06D1002D04DD5FEAC2
:109B5000C97001D188F80000A068B04203DDBAF1F5
:109B6000000F03D016B16FF00100B7E72846B5E744
:109B70002DE9FF5F9B46144600273D469169D2E9D7
:109B80000196DDF840A00198884780465BEA0A000C
:109B900005D009E0A16901986D1C88478046216ABB
:109BA000404688470028F5D1B8F1FF3F03D05FEA6F
:109BB000C97005D014E04FF0FF3004B0BDE8F09F4D
:109BC0002068011D216007680AE05FEAC97001D1C1
:109BD00027F8028BA1696D1C0198761E8847804684
:109BE000002E15DDB8F1FF3F12D0BBF1000007D009
:109BF0004346DDE90E1201F029F90028E5D107E01E
:109C0000BAF1000FE1D14046216A88470028DCD034
:109C1000E16901988847BAF1000F05D1002D03DDF5
:109C20005FEAC97000D13880A068B04203DDBAF1A4
:109C3000000F03D016B16FF00100BEE72846BCE765
:109C4000431A28BF9A427EF6B4AF1044114410F074
:109C5000030F1EBF11F8013D521E00F8013D10F028
:109C6000030F7FF4F6AF103AC0F00A8010B531E967
:109C7000185020E91850103ABFF4F9AFBDE8104071
:109C8000530724BF31E9081020E9081044BF51F8F8
:109C9000043D40F8043D12F0030F08BF7047D2079F
:109CA00028BF31F8023D48BF11F8012C28BF20F829
:109CB000023D48BF00F8012C704700000048704783
:109CC000B006002000210160416070470C20704701
:109CD000034640688C46002818BF88423CBF0346B4
:109CE0004068F8D318681844884207D00CF1030084
:109CF00020F00700001D411A521A0146081D0A6093
:109D0000FEF74EBB30B5B0F10A0271F100034FEA25
:109D1000900E4EEA817EB0EB0E0061EB91014FEAAE
:109D2000101E4EEA017E10EB0E0041EB11114FEABE
:109D3000102E4EEA016E10EB0E0041EB11214FEA9E
:109D4000104E4EEA014E10EB0E0041EB114140184F
:109D500041F100014FEAD00040EA41704FEAD101E1
:109D60004FEA810444EA907410EB800544EB01044F
:109D70006D1944EB0404521BA3414FF0000348BF8C
:109D80000A3200D530BD401C41F1000130BD10B594
:109D90000446FEF7FDFA0068005D00F0010010BD0A
:109DA0002DE9F0470D4699469246044600F12408F5
:109DB0000168880604D5E06921F01001216000E007
:109DC0000120A84201DD471B00E00027A1697A19A4
:109DD00002EB0900081AA0612078C00602D42046D0
:109DE000FFF76DF8002608E0D4E901211AF8060013
:109DF0009047206A401C761C20624E45F4DB207898
:109E0000C0060AD52046FFF75AF806E0D4E901213A
:109E100030209047206A401C2062381EA7F10107BD
:109E2000F4DC07E0D4E9012118F805009047206A26
:109E3000401C2062281EA5F10105F3DC2046FFF737
:109E400054F82078000602D50220BDE8F0870120F2
:109E5000FBE72DE9FF4F0C461E464FF0FF378BB056
:109E6000D2E90001DDF860800A908A46C1F30A5504
:109E700005B93D46002108464FF00000BAF1000F39
:109E800000F4400005DA00EB80004FF4400101EAE5
:109E900050004FEA9059B9F1010F00DDB9460A9818
:109EA00050EA4A000ED044F61050A5F2FF35454363
:109EB0002F14B8F1000F1ED07542291E1EDDC9F106
:109EC00000021CE0B8F1010F4FF0000001D030217A
:109ED00003E0F24305E02154401CB042FBDB304676
:109EE0000022002121540B99C1F80880C1E900200B
:109EF0000FB0BDE8F08FBD1B6D1CDEE74A4600DAEF
:109F0000694206A801F074F806AB93E8070003ABBA
:109F100083E8070050460A9918F008FF8DE807000B
:109F2000A0F500501F3800900398002D0ADD42F282
:109F30001F014A460844002303A90390684619F00C
:109F4000B3F909E0A0F500504A461F38002303A9E1
:109F50000390684619F0D2F98DE807000004000C60
:109F600003D04FF0FF30410800E01046B8F1000F79
:109F700003D00022009215461EE0751E05D4FFF79F
:109F8000C1FE303262556D1EF9D5B3460122084339
:109F900002D000227F1C04E02078302801D100226A
:109FA0007F1E002A099784D01DE0112D07DAFFF7E4
:109FB000A9FE303262556D1C50EA0102F5D108430A
:109FC00002D00098C8B10EE00021681E05E0235CB5
:109FD000625C63542254401E491C8142F7DBAB464D
:109FE000A81B401E0990002004F80B000B98099A4A
:109FF000C0F80880C0E9002B7AE711264FF000086E
:10A0000057E72DE9F04F88460446D21D22F007019C
:10A0100091B0D1E90001CDE90A0119F0BBFA02467D
:10A020000B98C00F01D02D2007E02068810701D5D3
:10A030002B2002E0202101EAC000032A099001D070
:10A04000072A05DB03464146204600F091FF0BE15D
:10A050002078800601D5E06900E00620B8F1650FA0
:10A06000814606D0B8F1660F18D0B8F1670F70D1ED
:10A0700031E00020B9F1110F009001DB112301E064
:10A0800009F101030AAA01A90CA8FFF7E2FEDDE924
:10A090000C70002609F10105834647E001204B467C
:10A0A00000904FF000470AAA01A90CA8FFF7D1FEC3
:10A0B000DDE90DB00C995D46002610B909F10100EB
:10A0C0000D18B9EB050003D4C0F1FF3609F1010505
:10A0D000A5EB09002BE0B9F1010F01DA4FF00109FE
:10A0E0000020B9F1110F0090484601DD112300E076
:10A0F00003460AAA01A90CA8FFF7ABFEDDE90C7024
:10A100004D4600268346207800070AD4AB4500DA86
:10A110005D4601A8012D04DD411911F8011C30290B
:10A1200007D04F4502DA17F1040F04DA0120824606
:10A130000FE06D1EEEE7002F02DCED1B3E4403E056
:10A14000781CA84200DD7D1CB81B00F1010A4FF00D
:10A1500000472078000703D4AA4501DB4FF0FF3AFF
:10A160000021B7F1004F0DF143088DF8431024D0C2
:10A1700002202B23002F01DA7F422D230A21021E09
:10A18000A0F1010000DC5FB197FBF1FC97FBF1F25D
:10A1900001FB1C7C17460CF1300C08F801CDEEE7F2
:10A1A000A8F1010003702188090501D5452100E0CF
:10A1B0006521A0F1010800F8011C09980FA9A1EB85
:10A1C0000807FF1D00B10120411901EBEA70A169E8
:10A1D0003844081A401EA0612078C00602D42046E8
:10A1E000FEF76DFE099828B1D4E901219047206A55
:10A1F000401C20622078C00622D52046FEF75FFE74
:10A200001EE0002E04DBB34502DD01A8805D00E006
:10A210003020D4E901219047206A401C2062761C3E
:10A22000AAF101005FEA000A0AD1FEF7BFFDC0688B
:10A230000168405CD4E901219047206A401C2062FB
:10A24000281EA5F10105DCDC07E0D4E9012118F89E
:10A25000010B9047206A401C2062381EA7F10107BD
:10A26000F3DC2046FEF741FE032011B041E600007A
:10A270002DE9F04F04460D46D21D22F0070089B0AB
:10A28000D0E900974846394619F084F90246F80F9C
:10A2900001D02D2307E02068810701D52B2302E0A0
:10A2A000202101EAC0038DF820300BB1012000E02D
:10A2B0000020032A824601D0072A04DB29462046D3
:10A2C00000F056FE3FE12078800601D40D2500E025
:10A2D000E569C7F30A560D2D49DA00214FEA175BED
:10A2E00008464FF00000002F00F4400007DA00EBB2
:10A2F00080004FF4400100EBD07001EA600081154E
:10A30000012901DD4FF0FF3100224FEA850CBCF13D
:10A31000180F06D31346ACF118004FF08052C2401C
:10A3200003E04FF4801323FA0CF30CF10C0CBCF196
:10A33000200F04D3ACF1200C09FA0CF001E007FA6D
:10A340000CF000294FF0004801DD18B90FE00ED1E4
:10A3500040450CD319EB02095F4121B9404502D1B8
:10A360009F4329EA0209BBEB175F00D0761C2088C7
:10A37000000502D57B48784402E07A4878441938D1
:10A3800008AA302302F80A30037C0AF10101002EEA
:10A390000AF1020A53546A4602DC4FF0300101E030
:10A3A0004FF031014FF001088DF8001002D0A6F2F5
:10A3B000FF3603E059EA470100D06B4E002D02DC66
:10A3C0002178090704D54FF002082E218DF80110DD
:10A3D000C44600210BE0C7F303433F01C35C491CA3
:10A3E0006D1E02F80830052908F1010801DA002D78
:10A3F000F1DC00210CE000EB1973491C1B786D1E89
:10A40000082902F808304FEA091908F1010801DAB1
:10A41000002DF0DC21688B0602D516E0A8F10108BA
:10A42000E04505DD02EB080313F8013C302BF5D0C5
:10A43000B8F1000F09DD02EB080313F8013C2E2BE5
:10A4400003D1090701D4A8F10108002D05DD3E2143
:10A4500002F808106D1E08F10108407C002E02F879
:10A46000080008F1010804DA2D20764202F80800FD
:10A4700002E02B2002F808000A214FF47A7086428D
:10A4800008F101080BDB96FBF0F3303302F80830DB
:10A4900096FBF0F308F1010800FB136601E0642E5F
:10A4A0000CDB642096FBF0F3303302F8083096FBA7
:10A4B000F0F308F1010800FB136601E00A2E06DB49
:10A4C00096FBF1F0303002F8080008F1010896FB25
:10A4D000F1F001FB1060303002F80800A16908F1CA
:10A4E000010808EB050202EB0A00081AA0612078B7
:10A4F000C00602D42046FEF7E2FC216A08AE01EB5A
:10A500000A00206204E0D4E9012116F8010B90470B
:10A51000BAF1010AF7D22078C00602D52046FEF72C
:10A52000CEFC6E4609E016F8010B3E280FD0D4E9A8
:10A5300001219047206A401C2062B8F10108F2D244
:10A540002046FEF7D2FC09B00320BDE8F08F206A58
:10A550002844206203E0D4E90121302090476D1E99
:10A56000EBD3F8E7D2A4010002FCFFFF10B543696A
:10A5700013B1AFF3008001E0FEF7DAFC012010BD5B
:10A58000127800F124010A7000224A700122EDE7DE
:10A5900011684FF0FF32E9E710B5436913B1AFF32B
:10A5A000008001E0FEF764FD012010BD128800F17B
:10A5B000240182840022C2840122EDE711684FF059
:10A5C000FF32E9E73A2800D2303820F02002412A51
:10A5D00001D3A2F13700884201D34FF0FF3070471A
:10A5E0002DE9F34F4FF0000A0C4656468DB001207E
:10A5F0000C9001F10C000B9062690B9801219047BF
:10A60000051E2DD0252D2CD0216A8847C0B1626946
:10A610000B9801219047216A88470028F7D1626989
:10A62000411E0B98904700E0761CA1690D98884761
:10A63000216A88470028F7D1E1690D988847DBE750
:10A64000A1690D988847A842074601D1761CD3E737
:10A65000E1690D9888477F1C02D1BAF1000F6FD0D5
:10A660006BE162690B9800273D46394690472A28DE
:10A6700004D162690B98012190470125DFF8D0824F
:10A6800062690B9801219047A0F130010A290AD292
:10A690004745E5DC07EB870100EB4107303FDFD49E
:10A6A00045F01005ECE7E90601D46FF000476C288F
:10A6B0000AD04C2814D0682815D06A280DD07428E8
:10A6C0001CD07A281AD01DE062690B9801219047AE
:10A6D0006C2802D045F0040514E045F002050DE0B9
:10A6E00045F020050AE062690B980121904768282F
:10A6F00002D045F0080505E045F4006562690B9855
:10A7000001219047C4E9015765283DD019DC58283C
:10A710007AD00CDC452837D004DC252826D0412807
:10A720009ED131E046282FD0472899D12CE05B28D4
:10A7300077D0612828D063287CD0642823D15AE0C0
:10A74000F6E06F2848D008DC66281DD067281BD0AB
:10A75000692821D06E2816D127E0702845D07328AB
:10A7600068D0752847D078280DD14DE0A1690D98A3
:10A770008847252805463FF469AFE1690D98884769
:10A780006D1C3FF46AAFD8E00D9923466A466FF01E
:10A7900001001AF013F8C5E045F0400023464FF0E1
:10A7A00000026060A80736D43EE0E8077FF447AFB8
:10A7B0002068011D21600068290501D506701BE78E
:10A7C000290701D5068017E7A90703D5F117C0E9C6
:10A7D000006111E706600FE745F0400023464FF0A7
:10A7E00008026060A80716D41EE040F60E0125EAB4
:10A7F0000100606016E045F0400023464FF00A0279
:10A800006060A80707D40FE045F040006060A8072B
:10A8100008D5234610220D996FF00100FEF70AFEBD
:10A8200080E007E0102223460D996FF00100FEF74B
:10A83000ACFE77E04FF0000963284F46C8464B4610
:10A84000CB4602D05B2806D038E0E80601D40120D0
:10A85000A060012732E06269D4F80CB00B980121A6
:10A8600090475E2807D14FF0010949466269D4F844
:10A870000CB00B989047216939B900210A4603AB07
:10A8800043F82120491C0829FADBD8B3216949B3D0
:10A8900008F1010862690B98012190475D28F4D105
:10A8A000B9F1000F09D0002003A951F82020D243AC
:10A8B00041F82020401C0828F7DB03AB2069002862
:10A8C00020794FEA40701ED05B462246CDF80080CA
:10A8D000CDE901970D9900286FF0010020DAFFF70C
:10A8E00047F91FE0C11703AA00EBD1614B1121F01A
:10A8F0001F0102EB8302411A1368012088400343C1
:10A900001360C7E719E00D99224600286FF0010097
:10A91000009702DAFFF72EF804E0FEF7DCFE01E014
:10A92000FFF7B2F800280ADA401C06D10C9820B1D3
:10A930004FF0FF300FB0BDE8F08F5046FAE7E9075F
:10A9400001D10AF1010A064400200C9054E60000EF
:10A95000CCCCCC0C2DE9FF4F06468BB00878FF28F5
:10A9600006D0491C2D2805D000244FF0000908E02E
:10A9700000200CE00124F8E709EB8903491C00EBF7
:10A9800043090878FF28F7D114B1C9F100008146C6
:10A99000107800252C46AA4629462D2801D02B28C0
:10A9A00004D1521C2D2813D0002082468B461078EB
:10A9B000FF280FD04FF0000C0A21521CA5FB017894
:10A9C00004FB018105FB0C11C5194BEB0104EEE7FB
:10A9D0000120EAE7002108464FF00000BAF1000F1D
:10A9E00002D000EB80004008C0F38157012F01DD49
:10A9F0004FF0FF370E9955EA040009EB01080BD020
:10AA00004FF0020918F5FA7F16DA4FEACA70002FE4
:10AA1000706008DD012007E04FEACA70C6E900B0A7
:10AA20000FB0BDE8F08F00203060FEF7C3F9C0F82A
:10AA300000901821084616E0B8F5FA7F18DD002FBF
:10AA400002DAF748784401E0F6487844D0E900108B
:10AA5000C6E9001040EACA707060FEF7ABF9C0F8B2
:10AA60000090142108460FB0BDE8F04F19F03FBE2A
:10AA7000002108464FF00000B8F10001099002DA09
:10AA8000C7F1000200E03A4601DAC8F1000106A869
:10AA900000F0AEFA06AB93E8070003AB83E80700CB
:10AAA00044F23E005BEA04010090584604D144F2AF
:10AAB0001E012C465D460091210C0904014306D17C
:10AAC0000099240444EA15442D041039009104F03F
:10AAD0007F41014306D10099240244EA15642D0206
:10AAE0000839009104F07041014306D10099240116
:10AAF00044EA15742D01091F009104F040410143FF
:10AB000006D10099A40044EA9574AD00891E009115
:10AB100004F00041084304D100986D196441401EBF
:10AB200000904FF001033A466846B8F1000FCDE9B6
:10AB3000014503A902DD18F0F6FB01E018F0C9FB9E
:10AB4000BAF1000F04460D4601D084F00044002104
:10AB500008464FF00000099940F2FF77484010F096
:10AB60000C0F07D124F00040284303D0C4F30A504F
:10AB7000B84212D1FEF71EF9C0F80090C4F30A5093
:10AB8000B8420AD1A8487844D0E90010C6E90010BC
:10AB900004F000410843706042E7C6E900543FE713
:10ABA0002DE9FF4F1F464FF0000A4FF0FF38454692
:10ABB00091B0D7E90146CDF83CA0FEF7F7F8C068A0
:10ABC0000168405C1090B96912986D1C8847396A19
:10ABD000814688470028F6D1B9F1FF3F0AD0002E00
:10ABE00024F4D06411DDB9F12B0F08D0B9F12D0F89
:10ABF0000BD102E0404615B013E744F48064B96914
:10AC000012986D1C8847761E8146600504A901D5FF
:10AC10002D2000E02B20002E01F1010B0DF130085A
:10AC20008DF810003FDDB9F1690F08D0B9F1490F77
:10AC300005D0B9F16E0F02D0B9F14E0F1CD13B46D1
:10AC400001A8009580E85002DDE912126FF00200C1
:10AC500019F0B8FDC11CCED10EE0B96912986D1C77
:10AC6000884781461398761E44F4007405600F9857
:10AC7000401C002E0F9016DDB9F1300FEDD0B9F168
:10AC8000780F02D0B9F1580F0DD10F9801280AD1D1
:10AC90003B46CDE90054DDE91212001F029619F07F
:10ACA0008FFDC11CA7D1109989453ED144F0800485
:10ACB00006E01399681CAAF1010A44F400740860C4
:10ACC000B9696D1C1298761E884730288146F0D0ED
:10ACD0002BE01099894505D1200603D4761E44F057
:10ACE000800418E0484618F0DAFD08B3761E0DF12E
:10ACF00023029345A9F1300044F4007406D20BF806
:10AD0000010B200607D5AAF1010003E0200602D4BA
:10AD10000AF101008246A00502D51399681C08605B
:10AD2000B96912986D1C88478146002ED1DC53E02A
:10AD3000002E51DDB9F1650F02D0B9F1450F4BD1AD
:10AD4000A00549D5B9696D1C1298761E24F440748B
:10AD50008847002E81460CDD2B2804D0B9F12D0F39
:10AD600007D144F48074B96912986D1C8847761E27
:10AD70008146E00501D52D2100E02B2108F8011BBB
:10AD8000CDF8008021E0761E0DF13901884544F4AC
:10AD900000740CD2A9F1300010F0FF0088F8000018
:10ADA00002D10099884509D908F1010806E0E005BB
:10ADB00001D51E4801E042F20F708246B96912982F
:10ADC0006D1C8847814613980560002E04DD4846B7
:10ADD00018F065FD0028D6D1F96912988847FF2040
:10ADE00053468BF8000088F8000000200A900B9072
:10ADF00004AA0CA90AA8FFF7ADFDA00502D46FF0C4
:10AE00000100F8E614F0240F12D0E0071CD13868D6
:10AE1000DDE90A12031D3B600068C0E9001213E07F
:10AE200098A501008AA501004EA40100F1D8FFFFFA
:10AE30000AA9684618F020FDE00705D13868009A95
:10AE4000011D3960006802602846D4E610B508E0AC
:10AE500030F8024B9C4204D10AB1002010BD012001
:10AE600010BD491EF4D2104610BDF8B516460C466A
:10AE70000546FDF78DFA036893F80101012804D017
:10AE8000185D78B101202C80F8BDD3F8030132465B
:10AE9000214603F20313C71868460023B8470099F8
:10AEA0002980F8BD4FF0FF30F8BD2DE9F04116467E
:10AEB0000C460546FDF76CFA036893F8010101287A
:10AEC00007D0FF2C12D8185D80B101202C70BDE88E
:10AED000F081D3F807013246214603F20713C71861
:10AEE0002846BC46BDE8F041002360474FF0FF30E4
:10AEF000EDE710B500F0FCF8BDE8104000F0F3B845
:10AF00007546FEF7DBFEAE4605006946534620F067
:10AF10000700854618B020B5FDF722FABDE82040AD
:10AF20004FF000064FF000074FF000084FF0000B05
:10AF3000AC46ACE8C009ACE8C009ACE8C009ACE874
:10AF4000C00921F007018D467047B2F120030AD5F0
:10AF5000C2F1200301FA02F120FA03F341EA0301EE
:10AF600000FA02F0704700FA03F14FF0000070475A
:10AF70002DE9F0411F46044603260168072A01F423
:10AF8000006004DB08B116A505E016A503E008B1D2
:10AF900015A500E015A521F010002060A069C01ED5
:10AFA000A0610FB1401EA0612046FDF788FF4FB1A0
:10AFB000D4E9012138469047206A401C2062C01C19
:10AFC000206206E0206AFAE7D4E9012115F8010BB6
:10AFD0009047761EF8D22046FDF787FFBDE8F08146
:10AFE0004E414E006E616E00494E4600696E66002D
:10AFF0002DE9F047814616468AB0354878440DC899
:10B000008DE80D0032487844801C03AC0DC884E8FC
:10B010000D0041F69B300844372190FBF1F290FB84
:10B02000F1F5A5F1800501FB12041B3C02D5644239
:10B03000012000E00020DFF898A080460027FA44B5
:10B04000AAF1BE0A0EE0E0070AD03246684607EBD6
:10B05000470101230AEB810118F050F98DE8070040
:10B0600064107F1C002CEED1194F7F44AE3F19E0D5
:10B07000E80715D007EB04100DF1180A90E80E0050
:10B080008AE80E00C068F04201D198190890324653
:10B09000012306A903A818F031F903AB83E80700E0
:10B0A0006D10641C002DE3D14FF001033246694658
:10B0B000B8F1000F03A802D018F0F6F801E018F07C
:10B0C0001DF9C9E90001C9F808200AB0BDE8F087F8
:10B0D000DC98010010B50446AFF300802046BDE8BF
:10B0E0001040FDF728B9002801D000F029B87047BA
:10B0F00010B5012805D0002103A000F053FA01206B
:10B1000010BD09A1F8E7000053494752544D454D81
:10B110003A204F7574206F662068656170206D65F8
:10B120006D6F7279000000003A2048656170206DF3
:10B13000656D6F727920636F7272757074656400EB
:10B1400001491820ABBEFEE7260002007047000050
:10B150002DE9FF4F1F464FF03C0987B04FF00042EA
:10B16000DDE9141001F10108DDF858A002EA4050B1
:10B170000390002005908346054604460490B96973
:10B18000461E08988847AAF1010A0290BAF1000FFA
:10B190003BDD02982E2815D01021FFF713FA002866
:10B1A0002EDB4FF0010B0599014317D0B9F1000FC9
:10B1B0000BDB4A46C117FFF7C8FE05430C43A9F154
:10B1C000040905E0012004900BE008B145F00105F9
:10B1D00001200590049820B9361D02E0049800B1C2
:10B1E000361FB969089808F101088847BBF1000FBC
:10B1F000AAF1010A0290C9D00999C1F80080C5E7F7
:10B200000298702808D0502806D0F9690898884715
:10B21000BBF1000F14D04FE0002002900120BBF1E1
:10B22000000F049009D0B969089808F1010888470F
:10B23000AAF10109B9F1000F07DCF96908988847FC
:10B240006FF001000BB0BDE8F08F2B2804D02D2843
:10B250000CD14FF0FF300490B969089808F101084B
:10B260008847A9F10109B9F1000FE6DD411CE4D0DE
:10B270000A21FFF7A7F90028DFDB029908F101088E
:10B2800001EB810100EB41000290B9690898884701
:10B290000A21FFF797F9099AA9F10109B9F1000FFD
:10B2A000C2F8008001DD0028E7DAF96908988847CC
:10B2B0000499029800FB016655EA040004D004F0EA
:10B2C0004041090002D006E0039898E0A40044EA57
:10B2D0009574AD00B61E04F00041080002D16D194E
:10B2E0006441761E159810F0240F03D04FF00B091F
:10B2F0005C4803E04FF028096FF07D008246564518
:10B3000007DAAAEB06018944B9F1410F01DD4FF0DC
:10B31000410901200021A9F10102FFF716FE0246B2
:10B3200028400B462140084301D0012100E00021C4
:10B33000501E029143F1FF3128402140084301D0C3
:10B34000012000E000200299834651EA0B014FD012
:10B35000002108464FF00000039900F4400039B185
:10B3600000EB80004FF4400100EBD07001EA600078
:10B370008015012802DD4FF0FF3000E013D0401CA3
:10B3800036D0029860B3BBF1000F0CD14A460120C1
:10B390000021FFF7DAFD28402140084301D00120B9
:10B3A00000E00020E0B101204A460021FFF7CDFD7A
:10B3B000034640190A4661412D1A8C4111D3B9F157
:10B3C000400F09DD159810F0240F02D0AAF13406C1
:10B3D00003E0AAF1170600E0761C00254FF00044B8
:10B3E00006E05B1E42F1FF3220EA030521EA020477
:10B3F000CAF10100B04206DA1B49039808430190E4
:10B40000002000900EE0039AC4F3D321E80A0A4317
:10B41000164940EA44500A433146CDE900026846E5
:10B4200018F033FA159810F0240F0BD01598C007B8
:10B4300015D13868DDE90012031D3B600068C0E9E2
:10B4400000120CE002A8694618F016FA1598C00719
:10B4500005D13868029A011D3960006802604046D3
:10B46000F0E6000002FCFFFF0000F07F0000F03F6C
:10B470002DE9FF4F92461D4685B04FF00041DDE9B2
:10B48000124BDDE914727F1E01EA4B50414940F036
:10B49000FF4940EA0108002122F0200049280491D8
:10B4A00002D04E2828D04CE03BA0012607C88DE8EA
:10B4B0000700A9690698641C88477F1E014606D4C8
:10B4C0001DF8060018B121F0200181420BD0E96976
:10B4D00006988847032E34D0082E32D06FF0010032
:10B4E00009B0BDE8F08F761C032E01D0082EE0D104
:10B4F000601CCAF80000DCE7A9690698641C88474C
:10B500007F1E2AD420F02000412826D1A969069860
:10B51000641C88477F1E20D420F020004E281CD1B8
:10B52000A9690698641C88477F1E48F4002849F4DE
:10B530008009CAF8004001D4282806D0E969069895
:10B5400088475FEACB7012D022E0A9690698641C94
:10B5500088477F1E01D4002803DAE96906988847E6
:10B56000BCE72928F1D1641CCAF80040E9E71BF0C8
:10B57000240F07D028680499031D2B600068C0E9D8
:10B58000001805E02868021D2A600068C0F80090D5
:10B590002046A5E70000F07F494E46494E495459E0
:10B5A0000000000070B505460C460A2000E06D1C46
:10B5B00000F011F835B128780028F8D102E0641CB9
:10B5C00000F009F814B120780028F8D1BDE87040E7
:10B5D0000A20AFF3008008B569468DF8000003200B
:10B5E000ABBE08BD80B584B041F28020C2F200003D
:10B5F0000078202848DCFFE741F28020C2F20000FA
:10B600000078202838D1FFE700200390FFE7039857
:10B610001D280EDCFFE7039941F27430C2F20000EE
:10B6200000EB810100208860FFE703980130039060
:10B63000EDE741F27431C2F2000100200190086090
:10B640000871012002900AF0E7F8019941F22410F4
:10B65000C2F20000006816F03DF8019941F2542052
:10B66000C2F20000006816F035F8029841F25C3131
:10B67000C2F200010870FFE741F28021C2F200012E
:10B68000087801300870FFE704B080BD00000000BA
:10B6900080B58EB040F2AC60C2F200000078C00706
:10B6A00048B1FFE743F26440C2F2000090ED020AA5
:10B6B00000F0C2F9ADE141F27430C2F2000000794D
:10B6C000C007002800F04B81FFE741F27430C2F25E
:10B6D0000000016800EB810080680D909DED0D0A6F
:10B6E0009FEDD11AB4EE410AF1EE10FA2BDDFFE71F
:10B6F00042F21020C2F2000090ED000A9FEDCB1A3A
:10B70000B4EE410AF1EE10FA1DDAFFE79DED0D0AE5
:10B7100042F21020C2F2000090ED001A30EE410A11
:10B720009FEDC21AB4EE410AF1EE10FA0BDDFFE70D
:10B73000012007900AF004F9079840F21471C2F250
:10B74000000108705AE09DED0D0A42F21020C2F28D
:10B75000000090ED001A30EE410A10EE100A18F0C9
:10B7600019FF41EC100B8DED040B0D9818F012FF32
:10B7700041EC100B9FEDA81B53EC112B51EC100B5F
:10B7800018F01AFC9DED041B41EC100B51EC110B51
:10B7900053EC102B18F045FF38B9FFE741F2884110
:10B7A000C2F200010120087027E042F21420C2F228
:10B7B000000090ED000A9FED9C1AB4EE410AF1EEF4
:10B7C00010FA19DDFFE70D9818F0E4FE41EC100BBC
:10B7D0009FED931B53EC112B51EC100B18F01AFF3B
:10B7E00050B9FFE701200AF0ABF841F25C31C2F238
:10B7F000000105200870FFE7FFE7FFE741F28840FE
:10B80000C2F200000078C007002800F08B80FFE73C
:10B8100043F26900C2F20000027843F26A01C2F208
:10B8200000010120885400208DF833000B90FFE7C1
:10B830000B98952810DCFFE79DF833000B9A43F234
:10B840006A01C2F20001895C08448DF83300FFE709
:10B850000B9801300B90EBE79DF8330088285ADBFA
:10B86000FFE700200A90FFE70A9895280CDCFFE725
:10B870000A9A43F26A01C2F2000100208854FFE7ED
:10B880000A9801300A90EFE742F21821C2F2000153
:10B890000120087000200990FFE709981D280EDCA0
:10B8A000FFE7099941F27430C2F2000000EB810118
:10B8B00000208860FFE7099801300990EDE741F228
:10B8C0007430C2F2000000230360037142F21020C2
:10B8D000C2F2000090ED000A43F26440C2F20000A0
:10B8E00090ED031A6846C36044F68A31C0F602013F
:10B8F0008160436003600121DFED4D1A08461A465E
:10B90000F0EE610A0CF03EFE41F25C31C2F2000141
:10B9100003200870FFE741F28841C2F200010020D5
:10B9200008700BE043F26900C2F20000027843F2B3
:10B930006A01C2F2000100208854FFE743F2690166
:10B94000C2F200010878431C4EF61C00C0F2B4108D
:10B95000A3FB0020962200FB12300870FFE742F2A2
:10B960001020C2F20000016841F27430C2F20000FF
:10B97000026800EB820291600168013148F6890299
:10B98000C8F6880252FB01131A1102EBD372C2EB04
:10B990000212A1EB420101600079C00770B9FFE714
:10B9A00041F27430C2F20000006838B9FFE741F29A
:10B9B0007431C2F2000101200871FFE740F21470F7
:10B9C000C2F200000078C00710B3FFE70020089023
:10B9D000FFE708981D280EDCFFE7089941F2743054
:10B9E000C2F2000000EB810100208860FFE70898A8
:10B9F00001300890EDE741F27431C2F200010020FD
:10BA00000860087140F21471C2F200010870FFE78B
:10BA1000FFE70EB080BD00BFFA7E6ABC7493983F0A
:10BA20000000000000408F4000007A440000FA430C
:10BA3000000000000000000080B58AB08DED090A0A
:10BA4000099942F6F050C2F2000003885A1C0280A5
:10BA500042F2F052C2F2000242F823100088B0F520
:10BA6000007FC0F2AD80FFE742F2F050C2F200006A
:10BA700007904FF40071089102F0B2FF07980899FF
:10BA800002F030FF44F65010C2F2000080ED000AD0
:10BA9000006818F07FFD41EC100B9FED4B1B53EC41
:10BAA000112B51EC100B18F0B5FDA8BBFFE740F2CD
:10BAB0007470C2F2000001780131017000783828FA
:10BAC00023DBFFE7012009F0A7FE41F22410C2F2B8
:10BAD000000000680021069115F0FCFD069943F274
:10BAE0003400C2F20000006815F0F4FD069941F23E
:10BAF0005420C2F20000006815F0ECFD069840F2F8
:10BB00007471C2F200010870FFE744F69011C2F2AE
:10BB10000001002008804CE044F69010C2F20000C2
:10BB20000188013101800088B0F5A87F3ADDFFE788
:10BB300042F21821C2F2000101200490087009F0BD
:10BB40006BFE049842F21021C2F2000191ED000A4E
:10BB500043F26441C2F2000191ED031A43F26041E5
:10BB6000C2F20001D1ED001A694600230593CB60B3
:10BB700044F68A32C0F602028A604B600B600621EE
:10BB8000DFED130A1A460CF0FDFC059841F25C3219
:10BB9000C2F200020321117044F69011C2F20001BA
:10BBA0000880FFE740F27471C2F2000100200870C3
:10BBB000FFE742F6F051C2F2000100200880FFE7E3
:10BBC0000AB080BD00BF00BF000000000000F83FC9
:10BBD0000000000070B58BB0129D119CDDF840E0B4
:10BBE000DDF83CC00A950994CDF820E0CDF81CC0E2
:10BBF00006930592049003919DED040AB8EEC00AE5
:10BC00009FED2B1A80EE010A8DED020A9DED030ACD
:10BC1000B8EEC00A80EE010A8DED010A9DED061A0C
:10BC20009DED070AB8EEC11A9DED022AB8EEC03AA2
:10BC3000BDF9240000EE100AB8EEC04ABDF9280094
:10BC400000EE100AB8EEC00A22EE000A30EE040A36
:10BC500022EE000A30EE030A22EE000A30EE013A2C
:10BC60009DED010ABDF9200001EE100AB8EEC11ADF
:10BC700020EE011A31EE031A20EE020ABDF922006D
:10BC800003EE100AB8EEC33ABDF9260004EE100A1E
:10BC9000B8EEC44A22EE042A32EE032A20EE020A4B
:10BCA00030EE010A8DED000A9DED000A0BB070BD6B
:10BCB0000000604AB0B589B00F9CDDF838E0DDF8CF
:10BCC00034C00894CDF81CE0CDF818C00593049258
:10BCD000039102909DED020AB8EEC00A9FED101A82
:10BCE00080EE010A8DED010ABDF90C10BDF90E00C0
:10BCF00000EE101AB8EEC00A01EE100AB8EEC11A32
:10BD00009DED012A21EE021AB6EE002A20EE020A6B
:10BD100030EE010A8DED000A9DED000A09B0B0BDBC
:10BD20000000604A80B586B004900A208DF80F00AC
:10BD3000049A0C20092100F0D1FA322013F014F8F3
:10BD4000FFE70499082000F0D5F94006002811D437
:10BD5000FFE79DF80F0001388DF80F009DF80F00E8
:10BD600020B9FFE74FF0FF3005903FE0C82012F008
:10BD7000FBFFE6E70498006845F20041C4F20001C9
:10BD8000884208D1FFE7049843F6F401C2F20001AB
:10BD900000F030F811E00498006845F60001C4F2A4
:10BDA0000001884208D1FFE7049843F60C11C2F263
:10BDB000000100F01FF8FFE7FFE7049A0620422188
:10BDC00000F08CFA049A07200190A22100F086FA74
:10BDD000049A09200021029100F080FA0199049A46
:10BDE000082000F07BFA02980590FFE7059806B05E
:10BDF00080BD000080B58AB00990089109986A4614
:10BE00004FF47A71516012211160EE2110220DF170
:10BE10000E0308F069FA9DF80E009DF80F1000015E
:10BE200040EA1110089908800898B0F90000B0F5B0
:10BE3000006F06DBFFE708990888A0F580500880AE
:10BE4000FFE79DF80F109DF8100001F00F0140EA88
:10BE50000120089948800898B0F90200B0F5006FF9
:10BE600006DBFFE708994888A0F580504880FFE787
:10BE70009DF811009DF812209DF81310000340EA70
:10BE8000021040EA11100899486008984068B0F51F
:10BE9000002F06DBFFE708994868A0F5801048608E
:10BEA000FFE79DF813009DF814209DF8151000F091
:10BEB0000F00000440EA02200844089988600898AE
:10BEC0008068B0F5002F06DBFFE708998868A0F5C9
:10BED00080108860FFE79DF81A109DF81B0040EA6B
:10BEE0000120089908820898B0F91000B0F5004FB9
:10BEF00006DBFFE70899088AA0F580300882FFE793
:10BF00009DF81E109DF81F0040EA012008998882C4
:10BF10000898B0F91400B0F5004F06DBFFE7089968
:10BF2000888AA0F580308882FFE79DF816109DF87A
:10BF3000170040EA0120089988810898B0F90C00A0
:10BF4000B0F5004F06DBFFE708998889A0F580303F
:10BF50008881FFE79DF818109DF8190040EA01203C
:10BF60000899C8810898B0F90E00B0F5004F06DBBB
:10BF7000FFE70899C889A0F58030C881FFE79DF8E0
:10BF80001C109DF81D0040EA01200899488208987D
:10BF9000B0F91200B0F5004F06DBFFE70899488AB8
:10BFA000A0F580304882FFE70AB080BD70B592B03E
:10BFB000199D189CDDF85CE0DDF858C010950F94D1
:10BFC000CDF838E0CDF834C00C930B920A9009916B
:10BFD00009986A464FF47A71516006211160EE218A
:10BFE00000220DF11E0308F07FF920B1FFE70020C9
:10BFF0008DF847005AE09DF81E009DF81F209DF81F
:10C000002010000440EA0220084406909DF81A001F
:10C010000006002805D5FFE7069840F07F4006900F
:10C02000FFE79DF821009DF822209DF823100004D1
:10C0300040EA0220084405909DF8160000060028FA
:10C0400005D5FFE7059840F07F400590FFE705988C
:10C050000B990C9A0D9BDDF838C00F9C109DEE4695
:10C06000CEF80850CEF80440CEF800C0FFF722FE0C
:10C070000A9880ED010A069805990B9A0C9BDDF849
:10C0800034C00E9C0F9D109EEE46CEF80C60CEF88C
:10C090000850CEF80440CEF800C0FFF79BFD0A9888
:10C0A00080ED000A01208DF84700FFE79DF847006A
:10C0B00012B070BD80B582B0019000910199252029
:10C0C00000F018F8009908700199262000F012F885
:10C0D000009948700199272000F00CF800998870A9
:10C0E0000199282000F006F80099C870002002B0DD
:10C0F00080BD000080B586B08DF817000491002047
:10C100008DF80F0004989DF817206B464FF47A7154
:10C11000596001211960EE210DF10F0308F0E4F8D8
:10C120009DF80F0006B080BD10B590B00F903E2076
:10C13000059040F29C30C2F20000FFF7F3FD40F2A0
:10C14000D430C2F20000FFF7EDFD16F037FA06908A
:10C15000FFE706A83E2115F0CDFE43F6F401C2F23A
:10C1600000010A684B688868D1F80CC0D1F810E06B
:10C170004C696946CC60C1F808E0C1F804C00860A9
:10C1800040F29C31C2F2000109A8FFF70FFF40F214
:10C190001C71C2F20001087043F60C11C2F20001DA
:10C1A0000A684B688868D1F80CC0D1F810E04C6977
:10C1B0006946CC60C1F808E0C1F804C0086040F2EC
:10C1C000D431C2F2000107A8FFF7F0FE40F21D7162
:10C1D000C2F20001087009980B900A980C90079819
:10C1E0000D9008980E90099844F6F451C2F200019F
:10C1F0000860079844F6F851C2F20001086042F264
:10C200002820C2F20000006818B9FFE709F074F9AD
:10C21000FFE742F22820C2F2000000680BA90023C9
:10C220001A4614F09DFF40F21C70C2F20000007824
:10C2300000283ED0FFE740F21D70C2F200000078F7
:10C24000B8B3FFE740F21F70C2F20000017801317D
:10C250000170007810280EDBFFE740F21E71C2F279
:10C26000000108780130087040F21F71C2F200012D
:10C2700000200870FFE740F21E70C2F20000007854
:10C280003C2815DBFFE745F62000C2F201000068FC
:10C29000002319461A4614F063FF012801D1FFE775
:10C2A000FFE740F21E71C2F2000100200870FFE7B4
:10C2B00000E0FFE745F2B870C2F201000068022119
:10C2C00014F08EFBFFE714F0F7FC022805D0FFE71F
:10C2D0004FF47A7012F048FDF5E73AE780B584B084
:10C2E0008DF80F008DF80E10029202989DF80F2025
:10C2F0006B464FF47A71596001211960EE210DF1FE
:10C300000E0308F08FF904B080BD0000FFE7FEE7E0
:10C3100080B582B045F6A400C2F2010069464860CB
:10C320000520086048F2D970C0F6010044F6BF410C
:10C33000C0F602014FF48072002315F023FD02B015
:10C3400080BD000084B00390029101920020ADF8FE
:10C350000200FFE7BDF90200019988424EDAFFE7CB
:10C360000398BDF90210405C00098DF801000398A4
:10C37000BDF90210405C00F00F008DF800009DF840
:10C38000010030308DF801009DF801003A2809DBEA
:10C39000FFE79DF8010007300299BDF9022001F87E
:10C3A000120007E09DF801000299BDF9022001F892
:10C3B0001200FFE79DF8000030308DF800009DF876
:10C3C00000003A280ADBFFE79DF8000007300299D9
:10C3D000BDF9022001EB4201487008E09DF8000021
:10C3E0000299BDF9022001EB42014870FFE7FFE727
:10C3F000BDF802000130ADF80200ABE704B07047B1
:10C4000080B586B041F24C30C2F2000000880428AA
:10C4100014DCFFE742F21020C2F20000006841F293
:10C420004C31C2F200010B8841F23832C2F20002F4
:10C4300042F82300088801300880FCE041F24C30CB
:10C44000C2F200000088052839DBFFE741F24C30DA
:10C45000C2F2000000889A2831DCFFE741F24C303C
:10C46000C2F200000088052821D1FFE741F23830F0
:10C47000C2F2000090ED000A90ED011A30EE010AC0
:10C4800090ED021A30EE010A90ED031A30EE010A27
:10C4900090ED041A30EE010AB1EE041A80EE010AA2
:10C4A00041F21C10C2F2000080ED000AFFE741F2E9
:10C4B0004C31C2F20001088801300880BAE041F234
:10C4C0004C30C2F2000000889B28C0F2B280FFE727
:10C4D00041F24C30C2F2000000889F2800F3A9808E
:10C4E000FFE742F21020C2F20000016841F24C3036
:10C4F000C2F20000038841F22432C2F2000202EBD1
:10C5000083024FF69453CFF6FF73D15000889F28D3
:10C5100040F08780FFE741F22430C2F2000090ED46
:10C52000000A90ED011A30EE010A90ED021A30EE89
:10C53000010A90ED031A30EE010A90ED041A30EE74
:10C54000010AB1EE041A80EE010A41F22010C2F293
:10C55000000080ED000A41F21C11C2F2000191EDD1
:10C56000001A90ED000A31EE400A80EE010A9FEDBC
:10C57000331AB4EE410AF1EE10FA2BDDFFE742F276
:10C580001820C2F200000121017042F21020C2F214
:10C59000000090ED000A43F26440C2F2000090ED0A
:10C5A000031A68460023C36044F68A32C0F60202CA
:10C5B000826043600360DFED221A08461A46F0EEFF
:10C5C000610A0BF0DFFF41F25C31C2F2000103208F
:10C5D000087025E008F090FF40F21070C2F20000F1
:10C5E0000078C00720B1FFE7012009F0A9F9FFE7B3
:10C5F00041F22410C2F2000000680021059115F0FC
:10C6000069F8059941F25420C2F20000006815F063
:10C6100061F841F25C31C2F2000101200870FFE7CD
:10C62000FFE741F24C31C2F2000108880130088076
:10C63000FFE7FFE7FFE706B080BD00BF8FC2F53D13
:10C640000000000080B586B08DED050ACDED040A2E
:10C65000059940F23072C2F20002137840F23000C5
:10C66000C2F2000040F82310049992F800C040F292
:10C670000003C2F20003009343F82C10117801313B
:10C6800045F25653C1F25553A1FB03C303EB4303D9
:10C69000A1EB830111700C21019102F023F90098A4
:10C6A000019900220292B5EE400AF1EE10FA08BF9D
:10C6B0000122039202F016F902990398B5EE400A9E
:10C6C000F1EE10FA08BF0121084308B1FFE708E0C6
:10C6D00045F2B870C2F201000068012114F080F93F
:10C6E000FFE706B080BD0000704700007047000003
:10C6F00084B08DF80F00029101929DF80F008DF823
:10C7000001000020ADF80200FFE7BDF8020001992A
:10C71000884210D2FFE70298BDF80210415C9DF8F4
:10C72000010008448DF80100FFE7BDF80200013068
:10C73000ADF80200E9E79DF8010004B07047000081
:10C7400080B584B006208DF80F0069464FF47A70EA
:10C75000086040F20C40C2F20000EC210DF10F0223
:10C760000123029307F0AAFC029812F0FDFA04B02C
:10C7700080BD0000B0B590B00F90002002900E90E8
:10C7800020208DF8360069464FF47A7008900860D2
:10C7900040F20C40C2F200000C90EC2109910DF126
:10C7A00036020A9201230B9307F088FCDDF820C0C3
:10C7B00009990A9A0B9B0C98EE46CEF800C007F038
:10C7C0007DFCDDF820C009990A9A0B9B0C98EE4677
:10C7D000CEF800C007F072FCDDF820C009990A9A73
:10C7E0000B9B0C984FF0040E8DF836E0EE46CEF819
:10C7F00000C007F063FCDDF820C009990A9A0B9B82
:10C800000C984FF02A0E8DF836E0EE46CEF800C0B8
:10C8100007F054FC0A2003F091FFDDF808C0089BE4
:10C820000C9809990A9ADF248DF836408DF837C0A4
:10C83000EC46CCF800300223049307F03FFCDDF80F
:10C8400020C009990A9A0B9B0C984FF0260E8DF880
:10C8500036E0EE46CEF800C007F030FC049BDDF871
:10C8600020C009990A9ADDF808E00C98DE250395A6
:10C870008DF836508DF837E0EE46CEF800C007F060
:10C880001DFC049BDDF820C009990A9A0C988DF8CC
:10C8900036404FF0410E8DF837E0EE46CEF800C03E
:10C8A00007F00CFC049BDDF820C009990A9ADDF81A
:10C8B0000CE00C988DF836E04FF0050E8DF837E05F
:10C8C000EE46CEF800C007F0F9FB049BDDF820C06F
:10C8D00009990A9A0C988DF836404FF0430ECDF81E
:10C8E00014E08DF837E0EE46CEF800C007F0E6FB26
:10C8F0000B9803F023FFDDF820C00C9809990A9AE1
:10C900000B9B4FF09D0ECDF818E08DF836E0EE460B
:10C91000CEF800C007F0D2FB089A09990B9B0C983F
:10C92000EC46CCF800200EAA079207F0ADF9049B64
:10C93000DDF820C009990A9ADDF80CE00C988DF812
:10C9400036E04FF0060E8DF837E0EE46CEF800C028
:10C9500007F0B4FB049BDDF820C009990A9ADDF8C2
:10C9600014E00C988DF836408DF837E0EE46CEF89E
:10C9700000C007F0A3FB0B9803F0E0FEDDF820C039
:10C980000C9809990A9A0B9BDDF818E08DF836E0AF
:10C99000EE46CEF800C007F091FB079ADDF820C004
:10C9A00009990B9B0C980132EE46CEF800C007F0B7
:10C9B0006BF9049BDDF820C009990A9ADDF80CE0B8
:10C9C0000C988DF836E04FF0070E8DF837E0EE4604
:10C9D000CEF800C007F072FB049BDDF820C0099977
:10C9E0000A9ADDF814E00C988DF836408DF837E09F
:10C9F000EE46CEF800C007F061FB0B9803F09EFEF8
:10CA0000DDF820C00C9809990A9A0B9BDDF818E014
:10CA10008DF836E0EE46CEF800C007F04FFB079ADF
:10CA2000DDF820C009990B9B0C980232EE46CEF837
:10CA300000C007F029F9049BDDF820C009990A9A83
:10CA4000DDF80CE00C988DF836E04FF07F0E8DF895
:10CA500037E0EE46CEF800C007F030FB049BDDF86F
:10CA600020C009990A9ADDF814E00C988DF8364038
:10CA70008DF837E0EE46CEF800C007F01FFB0B98AC
:10CA800003F05CFEDDF820C00C9809990A9A0B9B14
:10CA9000DDF818E08DF836E0EE46CEF800C007F07D
:10CAA0000DFB079ADDF820C009990B9B0C98033207
:10CAB000EE46CEF800C007F0E7F8DDF820C009998F
:10CAC0000A9A0B9B0C984FF02C0E8DF836E0EE4630
:10CAD000CEF800C007F0F2FADDF820C009990A9AF2
:10CAE0000B9B0C984FF0220E8DF836E0EE46CEF8F8
:10CAF00000C007F0E3FA9DF838000F9908709DF820
:10CB000039000F9948709DF83A000F9988709DF888
:10CB10003B000F99C87010B0B0BD000080B590B058
:10CB200007AB05930E900D910C9240208DF81B00E1
:10CB300069464FF47A70086040F20C40C2F200007F
:10CB4000EC210DF11B02012307F0B8FA002840F098
:10CB5000B080FFE78C2003F0F1FD10208DF81B0062
:10CB600069464FF47A700390086040F20C40C2F2BC
:10CB700000000490EC210DF11B02012307F09EFA46
:10CB8000039904986A461160ED210DF12A020623EB
:10CB900007F07AF89DF82A00099009980002099098
:10CBA0009DF82B10099808430990099800020990F4
:10CBB0009DF82C100998084309909DF8260000065E
:10CBC000002805D5FFE7099840F07F400990FFE76E
:10CBD000059890ED020AB8EEC00A9FED3A1A80EE71
:10CBE000010A0D9981ED000A9DF82D100891089910
:10CBF000090208919DF82E2008991143089108997F
:10CC0000090208919DF82F2008991143089190ED91
:10CC1000010AB8EEC00A0E9880ED000A31208DF8A6
:10CC20001B0069464FF47A700190086040F20C4096
:10CC3000C2F200000290EC210DF11B02012307F06B
:10CC40003DFA019902986A461160ED210DF12A0220
:10CC5000032307F019F89DF82A00079007980002AF
:10CC600007909DF82B10079808430790079800023B
:10CC700007909DF82C100798084307909DF81E0018
:10CC80000006002805D5FFE7079840F07F40079091
:10CC9000FFE7059890ED000AB8EEC00A9FED091A6B
:10CCA00080EE010A0C9880ED000A01208DF83F000B
:10CCB00003E000208DF83F00FFE79DF83F0010B033
:10CCC00080BD00BF0000C84280B540F29C30C2F277
:10CCD000000006F021FD80BD80B540F29C30C2F21C
:10CCE000000006F091FD80BD80B540F2D430C2F264
:10CCF000000006F011FD80BD80B540F2D430C2F2D4
:10CD0000000006F081FD80BD80B540F2D430C2F253
:10CD1000000006F001FD80BD80B540F20C40C2F27B
:10CD2000000006F071FD80BD80B582B08DF807006F
:10CD300040F60040C4F20100042104F08FFE02B06E
:10CD400080BD0000FFE7FEE780B584B08DF80F00DE
:10CD50009DF80F0040F22071C2F2000102910870AC
:10CD600055200C22FFF7C4FC0299087347F6000017
:10CD7000C0F60000019006F061F8019802991022B7
:10CD800006F068F804B080BD80B582B0ADF806004A
:10CD900040F27270C2F200000088BDF806108842AE
:10CDA00008DAFFE740F27271C2F200010888013030
:10CDB00008800EE0012008F02FFDC82011F0D4FFFC
:10CDC00008F062FB41F25C31C2F2000102200870FF
:10CDD000FFE702B080BD00007047000088B00790F8
:10CDE00006910592079800F0070004900498C0F19E
:10CDF0000700052803D3FFE70420019004E004980E
:10CE0000C0F107000190FFE70198039004980430F7
:10CE1000062803D8FFE70020009003E004980338B9
:10CE20000090FFE70098029006980399012202FA09
:10CE300001F101390840029B984005999A40013A56
:10CE40001140084308B0704788B0079006910592DA
:10CE5000079800F0070004900498C0F10700052827
:10CE600003D3FFE70420019004E00498C0F1070019
:10CE70000190FFE70198039004980430062803D836
:10CE8000FFE70020009003E0049803380090FFE7DC
:10CE90000098029006980399012202FA01F10139E3
:10CEA0000840029B984005999A40013A1140084376
:10CEB00008B0704780B541F28021C2F20001002025
:10CEC000087041F28121C2F20001087041F24C3138
:10CED000C2F20001088001F07FFF02F01DF840F26D
:10CEE0001070C2F200000078C00718B9FFE7FEF723
:10CEF000CFFBFFE780BD000080B582B0019000202D
:10CF0000ADF80200FFE745F68400C2F201000068B8
:10CF10004FF47A7114F0DEFB20B1FFE70020ADF88A
:10CF2000020012E0BDF802000130ADF80200BDF8C9
:10CF30000200822808DBFFE70020ADF8020011F0B4
:10CF4000F5F90BF091FCFFE7FFE7DCE700000000DC
:10CF5000EFF30980BFF36F8F154B1A681EF0100FA7
:10CF600008BF20ED108A20E9F04F10602DE909007C
:10CF70004FF0100080F31188BFF34F8FBFF36F8F16
:10CF800012F0ECFA4FF0000080F31188BDE80900C0
:10CF900019680868B0E8F04F1EF0100F08BFB0EC39
:10CFA000108A80F30988BFF36F8F704700BF00BFFE
:10CFB000FC31002000000000000000000000000024
:10CFC000074B19680868B0E8F04F80F30988BFF391
:10CFD0006F8F4FF0000080F31188704700BF00BFD3
:10CFE000FC31002080B584B00390039800040390C6
:10CFF00010F0C4FB10F00EFB40F60000C4F201007C
:10D0000002901021019104F061FCD8200FF0B0FED5
:10D010009DF80E000FF0ACFE9DF80D000FF0A8FE7D
:10D020009DF80C000FF0A4FE0199029804F058FC42
:10D0300010F0F0FA04B080BD80B515F0A3FA012815
:10D0400003D0FFE713F00AFFFFE780BD4EF68851DB
:10D05000CEF20001086840F47000086041F200015F
:10D06000C4F20201086840F001000860FFE741F2E5
:10D070000000C4F202000068C0F34000012801D0A3
:10D08000FFE7F4E741F20401C4F20201086820F06E
:10D0900003000860FFE741F20400C4F202000068E8
:10D0A0008008800708B1FFE7F5E741F20001C4F20C
:10D0B000020108684FF6FF72CFF6F2621040086076
:10D0C00041F20401C4F202010020086041F2300183
:10D0D000C4F20201086041F20801C4F202014FF4F7
:10D0E0001F0008604EF60851CEF200014FF00060BC
:10D0F0000860704780B540F60000C4F200000121CE
:10D1000010F03EFE78B1FFE740F21271C2F200016A
:10D1100008880130088040F60000C4F200000121B8
:10D1200010F006FEFFE780BD80B540F2B820C2F2E5
:10D130000000983004F0FAFC80BD000080B540F299
:10D14000B820C2F2000004F0F1FC80BD80B540F2CE
:10D15000B820C2F200004C3004F0E8FC80BD0000B2
:10D16000FFE7FEE781B08DF803009DF9030000287A
:10D170000ED4FFE79DF9031001F01F02012090403B
:10D180004A094EF20011CEF2000141F82200FFE7F9
:10D1900001B070474EF60C50CEF200000068C0F3AC
:10D1A000022070474EF60C50CEF200000068C0F32B
:10D1B0000220704782B08DF8070000919DF90700AA
:10D1C00000280AD4FFE7009800019DF907104EF2ED
:10D1D0000042CEF2000288540BE0009800019DF856
:10D1E000071001F00F014EF61452CEF200028854DF
:10D1F000FFE702B07047000082B08DF80700009191
:10D200009DF9070000280AD4FFE7009800019DF966
:10D2100007104EF20042CEF2000288540BE0009854
:10D2200000019DF8071001F00F014EF61452CEF2E6
:10D2300000028854FFE702B07047000083B00290FC
:10D24000029800F0070000904EF60C51CEF200015B
:10D250000868019001984FF6FF0210400190019874
:10D26000009A40EA02200022C0F2FA5210430190D4
:10D270000198086003B07047BFF34F8F4EF60C5112
:10D28000CEF20001086800F4E0600422C0F2FA5215
:10D2900010430860BFF34F8FFFE700BFFDE70000BA
:10D2A00080B582B000200190FFE7022003F01CFB54
:10D2B00008B9FFE7F9E7022003F0FEFA41F238006F
:10D2C000C2F20000408800EE100AB8EEC00A9FEDDE
:10D2D000091A20EE010A9FED081A80EE010A9FED5F
:10D2E000071A20EE010A8DED010A9DED010A02B038
:10D2F00080BD00BF3333534000F07F453333C3401C
:10D3000080B582B000200190FFE7022003F0ECFA24
:10D3100008B9FFE7F9E7022003F0CEFA41F238003E
:10D32000C2F20000008800EE100AB8EEC00A9FEDBD
:10D33000071A20EE010A9FED061A80EE010A8DED14
:10D34000010A9DED010A02B080BD00BF3333534096
:10D3500000F07F4582B00190009100980278019919
:10D36000486802F0010220F4807040EA0220486020
:10D37000009842780199886802F0010220F00200CA
:10D3800040EA42008860009882780199886802F03B
:10D39000010220F4006040EAC22088600098C07852
:10D3A000421E0199C86A02F00F0220F4700040EAA0
:10D3B0000250C86202B0704781B00090009900200E
:10D3C0000870009948700099887000990120C87011
:10D3D00001B0704781B000900099886840F0080063
:10D3E000886001B07047000082B0009000988068AB
:10D3F000C008C00720B1FFE701208DF8070003E057
:10D4000000208DF80700FFE79DF8070002B0704785
:10D4100081B000900099886840F00400886001B0F5
:10D420007047000082B00090009880688008C007B4
:10D4300020B1FFE701208DF8070003E000208DF800
:10D440000700FFE79DF8070002B0704781B08DF834
:10D4500003009DF8032042F20441C4F20101086870
:10D4600002F00F0220F4702040EA0240086001B090
:10D470007047000080B588B00920C0F21800012173
:10D48000059103F00FF80220029002F0EFFD00205A
:10D490000190FFF7DBFF07A80090FFF78DFF0099D1
:10D4A0000198059A8DF81C208DF81D208DF81E001E
:10D4B000032003908DF81F0042F20040C4F20100E7
:10D4C0000690FFF747FF0199059A069807230493F2
:10D4D00000F0D2F8029A049B0599069800F0CCF867
:10D4E000039A049B0698102100F0C6F80499059A47
:10D4F000069800F073F90599069800F02DF8059844
:10D5000000F0B8F90599069800F038F80698FFF78A
:10D5100061FFFFE742F20040C4F20100FFF764FF41
:10D5200008B1FFE7F6E742F20040C4F20100FFF75E
:10D530006FFFFFE742F20040C4F20100FFF772FF05
:10D5400008B1FFE7F6E742F20040C4F20100012112
:10D5500000F07EF908B080BD82B001908DF8031014
:10D560009DF803200199886802F0010220F4807080
:10D5700040EA0220886002B07047000082B001904B
:10D580008DF803109DF803200199886862F300006C
:10D59000886002B07047000080B582B00020019022
:10D5A000FFE7022003F0A0F908B9FFE7F9E702203E
:10D5B00003F082F941F23800C2F20000808816F0D0
:10D5C0006FFC41EC100B9FED1E1B53EC112B51EC2B
:10D5D000100B16F0F1FC41EC100B51EC100B9FED11
:10D5E0001A0B53EC102B16F0C3FA41EC100B51EC54
:10D5F000100B9FED170B53EC102B16F0FDF941ECBF
:10D60000100B51EC100B9FED140B53EC102B16F07C
:10D61000AFFA41EC100B51EC100B9FED110B53ECDA
:10D62000102B16F0E9F941EC100B51EC100B16F031
:10D63000B1F901909DED010A02B080BD00BF00BFAD
:10D640006666666666660AC0000000000000B040BC
:10D650007B14AE47E17AF43F5036E50AEF7271BFB2
:10D66000000000000000394080B503F0CFF807F05B
:10D67000CFF9FFF7FFFE80BD83B002908DF8071051
:10D680008DF806208DF805309DF8070009281CDC70
:10D69000FFE70298006900909DF8070000EB400149
:10D6A000072000FA01F10098884300909DF80500DA
:10D6B0009DF8071001EB410100FA01F100980843C1
:10D6C00000900098029908611EE00298C0680090DE
:10D6D0009DF8070000EB4000A0F11E01072000FAB2
:10D6E00001F10098884300909DF805009DF807100F
:10D6F00001EB41011E3900FA01F100980843009046
:10D7000000980299C860FFE79DF806000D281FDB0E
:10D71000FFE70298C06A00909DF8060000EB8000C9
:10D72000A0F141011F2000FA01F100988843009008
:10D730009DF807009DF8061001EB8101413900FAC0
:10D7400001F100980843009000980299C86242E0F5
:10D750009DF8060007281FDBFFE70298006B00908A
:10D760009DF8060000EB8000A0F123011F2000FAC5
:10D7700001F10098884300909DF807009DF806107D
:10D7800001EB8101233900FA01F100980843009070
:10D790000098029908631DE00298406B00909DF884
:10D7A000060000EB8000411F1F2000FA01F10098E5
:10D7B000884300909DF807009DF8061001EB810159
:10D7C000053900FA01F10098084300900098029989
:10D7D0004863FFE7FFE703B07047000082B00190A5
:10D7E0008DF803108DF802209DF80300082811DB46
:10D7F000FFE70199886840F0007088609DF8030099
:10D8000000F007020199886820F4602040EA424055
:10D81000886010E00199886820F0007088609DF8A9
:10D82000030000F007020199886820F4602040EAB4
:10D8300042408860FFE79DF802200199886802F065
:10D84000010220F4801040EA0250886002B0704764
:10D8500082B001908DF803109DF80320019988682B
:10D8600002F0010220F4800040EA8250886002B099
:10D870007047000081B08DF803009DF8032042F24C
:10D880000841C4F20101086802F0010220F400001E
:10D8900040EAC250086001B07047000080B584B013
:10D8A00041F24C31C2F200010020088041F23E00FA
:10D8B000C2F200000078C00728B9FFE707F0B4FD06
:10D8C00002F02CF8FFE742F21820C2F200000078C4
:10D8D000C007002840F0A780FFE741F28120C2F294
:10D8E0000000007848B9FFE741F23E01C2F20001B2
:10D8F0000120087008F024F8FFE741F28120C2F20D
:10D9000000000078202800F38D80FFE741F281209D
:10D91000C2F20000007820287CD1FFE741F23E01EE
:10D92000C2F20001002001900870012007F074FF8E
:10D93000019942F22820C2F20000006813F0B2FB05
:10D94000019843F20011C2F20001087043F2021183
:10D95000C2F20001087043F20111C2F20001087026
:10D9600041F26431C2F20001087041F26531C2F245
:10D97000000108700390FFE703981D280EDCFFE705
:10D98000039941F27430C2F2000000EB81010020E3
:10D990008860FFE7039801300390EDE741F27431AE
:10D9A000C2F2000100200860087143F24061C2F237
:10D9B0000001087041F20441C2F2000108700290B7
:10D9C000FFE7029803280DDCFFE7029A41F2F431E9
:10D9D000C2F20001002041F82200FFE70298013066
:10D9E0000290EEE741F22410C2F20000006800212C
:10D9F000009113F06FFE009941F25420C2F2000032
:10DA0000006813F067FE41F25C31C2F200010120B0
:10DA10000870FFE741F28121C2F20001087801306D
:10DA20000870FFE7FFE704B080BD000080B58CB050
:10DA300000200B900A9009904FF6FF70ADF822007D
:10DA400005F0D4F903F02EFF00F520500A90FFE70F
:10DA500009980A99884236D2FFE7099800F50060D4
:10DA60000A99884205D9FFE70A980999401A059052
:10DA700003E04FF400600590FFE7059807900998D0
:10DA800048F20001C0F600010844079A40F62C0154
:10DA9000C2F20001049105F0B1F904999DF8220049
:10DAA000079AFEF725FE0499ADF822000998002296
:10DAB000C0F608021044079A05F0CCF907990998B6
:10DAC00008440990C4E7BDF8220040F22071C2F278
:10DAD000000188800A988860002009904FF6FF7046
